:020000040000FA
:08000000803102288731FA2F3C
:100C8A002F0096019701980199019A019B0108008A
:100C9A00603031008D008F01910102309300920182
:100CAA000800803027008E007F308D00C0308C0015
:100CBA0024001F08F33904389F000800013025007A
:100CCA0090008F019101FF308D008C012E00901051
:100CDA00A33025008E0008000430250096009501F7
:100CEA0097010B30930092012E009011F9302500E4
:100CFA0094000800F300730821009E009317131351
:100D0A0013140000882E210013188C2E8D2E882E85
:100D1A008E2E0D08F1000C08F000932E0800863183
:100D2A00452686318631C126863186314D26863161
:100D3A008631562686318631AA2686318631712633
:100D4A008631863163268631080022008E018F01A2
:100D5A0090019101920193018D0121009E019B0155
:100D6A0094019501960197019A0199010130980021
:100D7A00843093009D010800200096019701980194
:100D8A00F0309100FF3092000F309300FF303E00A8
:100D9A00CE00FF30C300DF30B800E501C401B9015D
:100DAA00CF01BA01C501D001FF30BB00FF30C60038
:100DBA00FF30D1000800F101F2017208803AF00018
:100DCA0083307002031DEB2EE8307102031CEE2EF5
:100DDA00EF2EF12E072F072FC8300032890BF22E83
:100DEA000130F1070030F23D7208803AF00083309A
:100DFA007002031D022FE8307102031C052F062F13
:100E0A00F12E072F08008631942687310C2F2E00E9
:100E1A0090110F2F03102000161C03140318162F0D
:100E2A00192F200016141B2F200016101C2F043017
:100E3A0086317F2687317108FC007008FB007C0828
:100E4A00F5007B08F4000530F536F40C890B292FE0
:100E5A0001307405F600200016087606FE3976067B
:100E6A0096007C08F5007B08F4000630F536F40C91
:100E7A00890B3B2F74080139F600F60D1608760621
:100E8A00FD39760696007C08F5007B08F4000730E9
:100E9A00F536F40C890B4D2F74080139F600F60D5E
:100EAA00F60D16087606FB39760696007C08013997
:100EBA00F400F40DF40DF40D16087406F7397406EF
:100ECA0096000C0C0139F4000130F435890B6A2FB5
:100EDA000C0C890C0139F5000130F535FF3E031D74
:100EEA00722F75357407F6000C0CF700F70C770CA7
:100EFA000139F8000230F835FF3E031D802F78359E
:100F0A007607F9000C0801397907013EFA007A08D8
:100F1A00FD00D62F1816912F0630F5001330F40075
:100F2A00AE30890B962FF40B962FF50B962F9D2F2B
:100F3A0020009816A02F8631E0268731EC2F20005A
:100F4A001817A72F8631E0268731AB2F2000981774
:100F5A008631E0268731EC2F20009816B42F86318F
:100F6A00E0268731B82F200098178631E02687318E
:100F7A00EC2F20001816C12F8631E0268731C52FA5
:100F8A00200018178631E0268731EC2F200018122E
:100F9A00CE2F9812D02F1813D22F9813EC2FEC2F94
:100FAA00EC2F7D08F400F5017508003A0319DE2FCD
:100FBA00CB2F7408013A03198F2F033A0319A42F70
:100FCA00013A0319B12F073A0319BE2FCB2F20007C
:100FDA001812EF2F9812F12F1813F32F98130C2FC2
:100FEA000C2F0C2F0C2F803102282000A001A10108
:060FFA0020008731082FE2
:020000040001F9
:0A000E00EC3FFF3F9F3FFF3FFF3F25
:00000001FF
